{
  "contractName": "People",
  "abi": [
    {
      "constant": true,
      "inputs": [
        {
          "name": "",
          "type": "uint256"
        }
      ],
      "name": "people",
      "outputs": [
        {
          "name": "firstName",
          "type": "bytes32"
        },
        {
          "name": "lastName",
          "type": "bytes32"
        },
        {
          "name": "age",
          "type": "uint256"
        }
      ],
      "payable": false,
      "stateMutability": "view",
      "type": "function"
    },
    {
      "constant": false,
      "inputs": [
        {
          "name": "_firstName",
          "type": "bytes32"
        },
        {
          "name": "_lastName",
          "type": "bytes32"
        },
        {
          "name": "_age",
          "type": "uint256"
        }
      ],
      "name": "addPerson",
      "outputs": [
        {
          "name": "added",
          "type": "bool"
        }
      ],
      "payable": false,
      "stateMutability": "nonpayable",
      "type": "function"
    },
    {
      "constant": true,
      "inputs": [],
      "name": "getPeople",
      "outputs": [
        {
          "name": "",
          "type": "bytes32[]"
        },
        {
          "name": "",
          "type": "bytes32[]"
        },
        {
          "name": "",
          "type": "uint256[]"
        }
      ],
      "payable": false,
      "stateMutability": "view",
      "type": "function"
    }
  ],
  "bytecode": "0x6060604052341561000f57600080fd5b6106968061001e6000396000f300606060405260043610610057576000357c0100000000000000000000000000000000000000000000000000000000900463ffffffff1680634f995d081461005c578063773b82a3146101565780639e7a13ad146101ab575b600080fd5b341561006757600080fd5b61006f610200565b60405180806020018060200180602001848103845287818151815260200191508051906020019060200280838360005b838110156100ba57808201518184015260208101905061009f565b50505050905001848103835286818151815260200191508051906020019060200280838360005b838110156100fc5780820151818401526020810190506100e1565b50505050905001848103825285818151815260200191508051906020019060200280838360005b8381101561013e578082015181840152602081019050610123565b50505050905001965050505050505060405180910390f35b341561016157600080fd5b61019160048080356000191690602001909190803560001916906020019091908035906020019091905050610437565b604051808215151515815260200191505060405180910390f35b34156101b657600080fd5b6101cc60048080359060200190919050506104d6565b6040518084600019166000191681526020018360001916600019168152602001828152602001935050505060405180910390f35b61020861050f565b61021061050f565b610218610523565b600080600080610226610537565b6000915060008054905082101561042c5760008281548110151561024657fe5b90600052602060002090600302016060604051908101604052908160008201546000191660001916815260200160018201546000191660001916815260200160028201548152505090508480548060010182816102a3919061055f565b916000526020600020900160008360000151909190915090600019169055508380548060010182816102d5919061055f565b91600052602060002090016000836020015190919091509060001916905550828054806001018281610307919061058b565b916000526020600020900160008360400151909190915055508484848280548060200260200160405190810160405280929190818152602001828054801561037257602002820191906000526020600020905b8154600019168152602001906001019080831161035a575b50505050509250818054806020026020016040519081016040528092919081815260200182805480156103c857602002820191906000526020600020905b815460001916815260200190600101908083116103b0575b505050505091508080548060200260200160405190810160405280929190818152602001828054801561041a57602002820191906000526020600020905b815481526020019060010190808311610406575b5050505050905097509750975061042d565b5b5050505050909192565b6000610441610537565b84816000019060001916908160001916815250508381602001906000191690816000191681525050828160400181815250506000805480600101828161048791906105b7565b9160005260206000209060030201600083909190915060008201518160000190600019169055602082015181600101906000191690556040820151816002015550505060019150509392505050565b6000818154811015156104e557fe5b90600052602060002090600302016000915090508060000154908060010154908060020154905083565b602060405190810160405280600081525090565b602060405190810160405280600081525090565b6060604051908101604052806000801916815260200160008019168152602001600081525090565b8154818355818115116105865781836000526020600020918201910161058591906105e9565b5b505050565b8154818355818115116105b2578183600052602060002091820191016105b1919061060e565b5b505050565b8154818355818115116105e4576003028160030283600052602060002091820191016105e39190610633565b5b505050565b61060b91905b808211156106075760008160009055506001016105ef565b5090565b90565b61063091905b8082111561062c576000816000905550600101610614565b5090565b90565b61066791905b80821115610663576000808201600090556001820160009055600282016000905550600301610639565b5090565b905600a165627a7a72305820676c8715985edd92f9ac414e4e3b4c3a73e647a842f8a498c70cb3dca73f816d0029",
  "source": "contract People {\n\n\t// define an array that will contain the Person structs\n\tPerson[] public people;\n\n\tstruct Person {\n\t\tbytes32 firstName;\n\t\tbytes32 lastName;\n\t\tuint age;\n\t}\n\n\t// using 'returns' is helpful \n\t// a function can take a string and convert from bytecode for us, but we are going to specify bytes32\n\tfunction addPerson(bytes32 _firstName, bytes32 _lastName, uint _age) returns (bool added) {\n\n\t\t// EVM has memory to store state variables\n\t\t// create struct in memory before adding to array\n\t\t// this stage does not change state, so it does not cost gas\n\t\t// you can create a constant function that does not change state\n\t\tPerson memory newPerson;\n\t\tnewPerson.firstName = _firstName;\n\t\tnewPerson.lastName = _lastName;\n\t\tnewPerson.age = _age;\n\n\t\t// push() changes state by adding to an array\n\t\t// costs gas\n\t\tpeople.push(newPerson);\n\t\treturn true;\n\n\t}\n\n\t// accessor/getter from array\n\t// functions can not return a struct.\n\t// return an array of strings (firstName, lastName), and an array of ages.\n\tfunction getPeople() constant returns (bytes32[],bytes32[],uint[]) {\n\t\t// creating an array of strings can be an issue if they are of different lengths.\n\t\t// change strings to a fixed length and pad with spaces => bytes32\n\n\n\t\tbytes32[] firstNames;\n\t\tbytes32[] lastNames;\n\t\tuint[] ages;\n\n\t\tfor (uint i=0; i < people.length; i++) {\n\t\t\t// create a new Person structure in memory\n\t\t\t// populate it with the element of the array in focus\n\t\t\t// feed the properties of the structure from memory into an output array\n\t\t\tPerson memory currentPerson;\n\t\t\tcurrentPerson = people[i];\n\n\t\t\tfirstNames.push(currentPerson.firstName);\n\t\t\tlastNames.push(currentPerson.lastName);\n\t\t\tages.push(currentPerson.age);\n\n\t\t\t// tuple: multiple outputs\n\t\t\treturn (firstNames, lastNames, ages);\n\t\t}\n\n\t}\n\n}",
  "sourcePath": "/Users/user/Documents/GitHub/youtube_decypher-media_smart-contract-development/peoplelist/contracts/People.sol",
  "compiler": {
    "name": "solc",
    "version": "0.4.19+commit.c4cbbb05.Emscripten.clang"
  },
  "schemaVersion": "2.0.0",
  "updatedAt": "2018-03-30T15:55:12.503Z"
}